{
  "_format": "hh-sol-artifact-1",
  "contractName": "Upload",
  "sourceName": "contracts/Upload.sol",
  "abi": [
    {
      "inputs": [
        {
          "internalType": "uint256",
          "name": "_id",
          "type": "uint256"
        },
        {
          "internalType": "uint256",
          "name": "amt",
          "type": "uint256"
        }
      ],
      "name": "acceptRequest",
      "outputs": [],
      "stateMutability": "nonpayable",
      "type": "function"
    },
    {
      "inputs": [
        {
          "internalType": "address",
          "name": "_user",
          "type": "address"
        },
        {
          "internalType": "string",
          "name": "url",
          "type": "string"
        }
      ],
      "name": "add",
      "outputs": [],
      "stateMutability": "nonpayable",
      "type": "function"
    },
    {
      "inputs": [
        {
          "internalType": "string",
          "name": "url",
          "type": "string"
        },
        {
          "internalType": "string",
          "name": "author",
          "type": "string"
        },
        {
          "internalType": "string",
          "name": "title",
          "type": "string"
        },
        {
          "internalType": "string",
          "name": "text",
          "type": "string"
        }
      ],
      "name": "addPosts",
      "outputs": [],
      "stateMutability": "nonpayable",
      "type": "function"
    },
    {
      "inputs": [
        {
          "internalType": "uint256",
          "name": "_id",
          "type": "uint256"
        },
        {
          "internalType": "string",
          "name": "_name",
          "type": "string"
        },
        {
          "internalType": "uint256",
          "name": "_price",
          "type": "uint256"
        },
        {
          "internalType": "string",
          "name": "_pic",
          "type": "string"
        },
        {
          "internalType": "uint256",
          "name": "_wdrive",
          "type": "uint256"
        }
      ],
      "name": "addVehicle",
      "outputs": [],
      "stateMutability": "nonpayable",
      "type": "function"
    },
    {
      "inputs": [
        {
          "internalType": "address",
          "name": "user",
          "type": "address"
        }
      ],
      "name": "allow",
      "outputs": [],
      "stateMutability": "nonpayable",
      "type": "function"
    },
    {
      "inputs": [
        {
          "internalType": "address",
          "name": "user",
          "type": "address"
        }
      ],
      "name": "disallow",
      "outputs": [],
      "stateMutability": "nonpayable",
      "type": "function"
    },
    {
      "inputs": [
        {
          "internalType": "address",
          "name": "_user",
          "type": "address"
        }
      ],
      "name": "display",
      "outputs": [
        {
          "internalType": "string[]",
          "name": "",
          "type": "string[]"
        }
      ],
      "stateMutability": "view",
      "type": "function"
    },
    {
      "inputs": [],
      "name": "getBalance",
      "outputs": [
        {
          "internalType": "uint256",
          "name": "",
          "type": "uint256"
        }
      ],
      "stateMutability": "view",
      "type": "function"
    },
    {
      "inputs": [
        {
          "internalType": "uint256",
          "name": "",
          "type": "uint256"
        }
      ],
      "name": "onSale",
      "outputs": [
        {
          "internalType": "uint256",
          "name": "id",
          "type": "uint256"
        },
        {
          "internalType": "string",
          "name": "name",
          "type": "string"
        },
        {
          "internalType": "uint256",
          "name": "price",
          "type": "uint256"
        },
        {
          "internalType": "string",
          "name": "pic",
          "type": "string"
        },
        {
          "internalType": "uint256",
          "name": "wdrive",
          "type": "uint256"
        },
        {
          "internalType": "bool",
          "name": "avail",
          "type": "bool"
        },
        {
          "internalType": "address",
          "name": "beingSoldBy",
          "type": "address"
        }
      ],
      "stateMutability": "view",
      "type": "function"
    },
    {
      "inputs": [
        {
          "internalType": "uint256",
          "name": "",
          "type": "uint256"
        }
      ],
      "name": "posts",
      "outputs": [
        {
          "internalType": "string",
          "name": "pic",
          "type": "string"
        },
        {
          "internalType": "string",
          "name": "author",
          "type": "string"
        },
        {
          "internalType": "string",
          "name": "title",
          "type": "string"
        },
        {
          "internalType": "string",
          "name": "text",
          "type": "string"
        },
        {
          "internalType": "address",
          "name": "writer",
          "type": "address"
        }
      ],
      "stateMutability": "view",
      "type": "function"
    },
    {
      "inputs": [
        {
          "internalType": "uint256",
          "name": "_id",
          "type": "uint256"
        },
        {
          "internalType": "uint256",
          "name": "cost",
          "type": "uint256"
        }
      ],
      "name": "raiseRequest",
      "outputs": [],
      "stateMutability": "payable",
      "type": "function"
    },
    {
      "inputs": [],
      "name": "shareAccess",
      "outputs": [
        {
          "components": [
            {
              "internalType": "address",
              "name": "user",
              "type": "address"
            },
            {
              "internalType": "bool",
              "name": "access",
              "type": "bool"
            }
          ],
          "internalType": "struct Upload.Access[]",
          "name": "",
          "type": "tuple[]"
        }
      ],
      "stateMutability": "view",
      "type": "function"
    },
    {
      "inputs": [
        {
          "internalType": "uint256",
          "name": "_id",
          "type": "uint256"
        }
      ],
      "name": "viewHistory",
      "outputs": [
        {
          "internalType": "address[]",
          "name": "",
          "type": "address[]"
        }
      ],
      "stateMutability": "view",
      "type": "function"
    },
    {
      "inputs": [],
      "name": "viewIncoming",
      "outputs": [
        {
          "components": [
            {
              "internalType": "uint256",
              "name": "id",
              "type": "uint256"
            },
            {
              "internalType": "address",
              "name": "buyerName",
              "type": "address"
            },
            {
              "internalType": "uint256",
              "name": "price",
              "type": "uint256"
            },
            {
              "internalType": "bool",
              "name": "accepted",
              "type": "bool"
            }
          ],
          "internalType": "struct Upload.Pair[]",
          "name": "",
          "type": "tuple[]"
        }
      ],
      "stateMutability": "view",
      "type": "function"
    },
    {
      "inputs": [],
      "name": "viewLatestTransac",
      "outputs": [
        {
          "components": [
            {
              "internalType": "uint256",
              "name": "id",
              "type": "uint256"
            },
            {
              "internalType": "string",
              "name": "date",
              "type": "string"
            },
            {
              "internalType": "uint256",
              "name": "price",
              "type": "uint256"
            },
            {
              "internalType": "address",
              "name": "buyer",
              "type": "address"
            },
            {
              "internalType": "address",
              "name": "seller",
              "type": "address"
            }
          ],
          "internalType": "struct Upload.Cert",
          "name": "",
          "type": "tuple"
        }
      ],
      "stateMutability": "view",
      "type": "function"
    },
    {
      "inputs": [],
      "name": "viewPosts",
      "outputs": [
        {
          "components": [
            {
              "internalType": "string",
              "name": "pic",
              "type": "string"
            },
            {
              "internalType": "string",
              "name": "author",
              "type": "string"
            },
            {
              "internalType": "string",
              "name": "title",
              "type": "string"
            },
            {
              "internalType": "string",
              "name": "text",
              "type": "string"
            },
            {
              "internalType": "address",
              "name": "writer",
              "type": "address"
            }
          ],
          "internalType": "struct Upload.Post[]",
          "name": "",
          "type": "tuple[]"
        }
      ],
      "stateMutability": "view",
      "type": "function"
    },
    {
      "inputs": [],
      "name": "viewVehicles",
      "outputs": [
        {
          "components": [
            {
              "internalType": "uint256",
              "name": "id",
              "type": "uint256"
            },
            {
              "internalType": "string",
              "name": "name",
              "type": "string"
            },
            {
              "internalType": "uint256",
              "name": "price",
              "type": "uint256"
            },
            {
              "internalType": "string",
              "name": "pic",
              "type": "string"
            },
            {
              "internalType": "uint256",
              "name": "wdrive",
              "type": "uint256"
            },
            {
              "internalType": "bool",
              "name": "avail",
              "type": "bool"
            },
            {
              "internalType": "address",
              "name": "beingSoldBy",
              "type": "address"
            }
          ],
          "internalType": "struct Upload.Vehicle[]",
          "name": "",
          "type": "tuple[]"
        }
      ],
      "stateMutability": "view",
      "type": "function"
    }
  ],
  "bytecode": "0x608060405234801561001057600080fd5b5061377f806100206000396000f3fe6080604052600436106100fe5760003560e01c8063b43a76f111610095578063d1a296f111610064578063d1a296f114610332578063de6738881461035b578063e0dd8cfe14610384578063eb39113f146103af578063ff9913e8146103ec576100fe565b8063b43a76f11461027d578063bc8bef81146102c0578063c7e19bce146102eb578063cdae6ec514610316576100fe565b80638bbc94f6116100d15780638bbc94f6146101c357806397ed879a146101ee578063a9ed9cb814610217578063ad2b46a814610240576100fe565b80630b1e7f831461010357806312065fe01461014457806332846f241461016f57806336d6da551461019a575b600080fd5b34801561010f57600080fd5b5061012a60048036038101906101259190612669565b610415565b60405161013b959493929190612770565b60405180910390f35b34801561015057600080fd5b5061015961069b565b60405161016691906127ee565b60405180910390f35b34801561017b57600080fd5b506101846106b6565b60405161019191906129af565b60405180910390f35b3480156101a657600080fd5b506101c160048036038101906101bc9190612b32565b6109b3565b005b3480156101cf57600080fd5b506101d8610a30565b6040516101e59190612cbc565b60405180910390f35b3480156101fa57600080fd5b5061021560048036038101906102109190612cde565b610b51565b005b34801561022357600080fd5b5061023e60048036038101906102399190612d91565b610d04565b005b34801561024c57600080fd5b5061026760048036038101906102629190612669565b610f27565b6040516102749190612e6d565b60405180910390f35b34801561028957600080fd5b506102a4600480360381019061029f9190612669565b610fc8565b6040516102b79796959493929190612e9e565b60405180910390f35b3480156102cc57600080fd5b506102d5611157565b6040516102e29190612ff9565b60405180910390f35b3480156102f757600080fd5b50610300611260565b60405161030d9190613091565b60405180910390f35b610330600480360381019061032b91906130b3565b61147d565b005b34801561033e57600080fd5b50610359600480360381019061035491906130f3565b611637565b005b34801561036757600080fd5b50610382600480360381019061037d91906130b3565b611762565b005b34801561039057600080fd5b50610399611cb0565b6040516103a6919061332f565b60405180910390f35b3480156103bb57600080fd5b506103d660048036038101906103d19190612d91565b611ec2565b6040516103e39190613413565b60405180910390f35b3480156103f857600080fd5b50610413600480360381019061040e9190612d91565b6120d9565b005b6000818154811061042557600080fd5b906000526020600020906005020160009150905080600001805461044890613464565b80601f016020809104026020016040519081016040528092919081815260200182805461047490613464565b80156104c15780601f10610496576101008083540402835291602001916104c1565b820191906000526020600020905b8154815290600101906020018083116104a457829003601f168201915b5050505050908060010180546104d690613464565b80601f016020809104026020016040519081016040528092919081815260200182805461050290613464565b801561054f5780601f106105245761010080835404028352916020019161054f565b820191906000526020600020905b81548152906001019060200180831161053257829003601f168201915b50505050509080600201805461056490613464565b80601f016020809104026020016040519081016040528092919081815260200182805461059090613464565b80156105dd5780601f106105b2576101008083540402835291602001916105dd565b820191906000526020600020905b8154815290600101906020018083116105c057829003601f168201915b5050505050908060030180546105f290613464565b80601f016020809104026020016040519081016040528092919081815260200182805461061e90613464565b801561066b5780601f106106405761010080835404028352916020019161066b565b820191906000526020600020905b81548152906001019060200180831161064e57829003601f168201915b5050505050908060040160009054906101000a900473ffffffffffffffffffffffffffffffffffffffff16905085565b6000670de0b6b3a7640000476106b191906134f4565b905090565b60606000805480602002602001604051908101604052809291908181526020016000905b828210156109aa57838290600052602060002090600502016040518060a001604052908160008201805461070d90613464565b80601f016020809104026020016040519081016040528092919081815260200182805461073990613464565b80156107865780601f1061075b57610100808354040283529160200191610786565b820191906000526020600020905b81548152906001019060200180831161076957829003601f168201915b5050505050815260200160018201805461079f90613464565b80601f01602080910402602001604051908101604052809291908181526020018280546107cb90613464565b80156108185780601f106107ed57610100808354040283529160200191610818565b820191906000526020600020905b8154815290600101906020018083116107fb57829003601f168201915b5050505050815260200160028201805461083190613464565b80601f016020809104026020016040519081016040528092919081815260200182805461085d90613464565b80156108aa5780601f1061087f576101008083540402835291602001916108aa565b820191906000526020600020905b81548152906001019060200180831161088d57829003601f168201915b505050505081526020016003820180546108c390613464565b80601f01602080910402602001604051908101604052809291908181526020018280546108ef90613464565b801561093c5780601f106109115761010080835404028352916020019161093c565b820191906000526020600020905b81548152906001019060200180831161091f57829003601f168201915b505050505081526020016004820160009054906101000a900473ffffffffffffffffffffffffffffffffffffffff1673ffffffffffffffffffffffffffffffffffffffff1673ffffffffffffffffffffffffffffffffffffffff1681525050815260200190600101906106da565b50505050905090565b600460008373ffffffffffffffffffffffffffffffffffffffff1673ffffffffffffffffffffffffffffffffffffffff16815260200190815260200160002081908060018154018082558091505060019003906000526020600020016000909190919091509080519060200190610a2b929190612521565b505050565b6060600260003373ffffffffffffffffffffffffffffffffffffffff1673ffffffffffffffffffffffffffffffffffffffff168152602001908152602001600020805480602002602001604051908101604052809291908181526020016000905b82821015610b485783829060005260206000209060040201604051806080016040529081600082015481526020016001820160009054906101000a900473ffffffffffffffffffffffffffffffffffffffff1673ffffffffffffffffffffffffffffffffffffffff1673ffffffffffffffffffffffffffffffffffffffff168152602001600282015481526020016003820160009054906101000a900460ff16151515158152505081526020019060010190610a91565b50505050905090565b60016040518060e001604052808781526020018681526020018581526020018481526020018381526020016001151581526020013373ffffffffffffffffffffffffffffffffffffffff168152509080600181540180825580915050600190039060005260206000209060060201600090919091909150600082015181600001556020820151816001019080519060200190610bee929190612521565b50604082015181600201556060820151816003019080519060200190610c15929190612521565b506080820151816004015560a08201518160050160006101000a81548160ff02191690831515021790555060c08201518160050160016101000a81548173ffffffffffffffffffffffffffffffffffffffff021916908373ffffffffffffffffffffffffffffffffffffffff160217905550505060036000868152602001908152602001600020339080600181540180825580915050600190039060005260206000200160009091909190916101000a81548173ffffffffffffffffffffffffffffffffffffffff021916908373ffffffffffffffffffffffffffffffffffffffff1602179055505050505050565b6000600560003373ffffffffffffffffffffffffffffffffffffffff1673ffffffffffffffffffffffffffffffffffffffff16815260200190815260200160002060008373ffffffffffffffffffffffffffffffffffffffff1673ffffffffffffffffffffffffffffffffffffffff16815260200190815260200160002060006101000a81548160ff02191690831515021790555060005b600660003373ffffffffffffffffffffffffffffffffffffffff1673ffffffffffffffffffffffffffffffffffffffff16815260200190815260200160002080549050811015610f23578173ffffffffffffffffffffffffffffffffffffffff16600660003373ffffffffffffffffffffffffffffffffffffffff1673ffffffffffffffffffffffffffffffffffffffff1681526020019081526020016000208281548110610e4e57610e4d613525565b5b9060005260206000200160000160009054906101000a900473ffffffffffffffffffffffffffffffffffffffff1673ffffffffffffffffffffffffffffffffffffffff161415610f10576000600660003373ffffffffffffffffffffffffffffffffffffffff1673ffffffffffffffffffffffffffffffffffffffff1681526020019081526020016000208281548110610eeb57610eea613525565b5b9060005260206000200160000160146101000a81548160ff0219169083151502179055505b8080610f1b90613554565b915050610d9c565b5050565b606060036000838152602001908152602001600020805480602002602001604051908101604052809291908181526020018280548015610fbc57602002820191906000526020600020905b8160009054906101000a900473ffffffffffffffffffffffffffffffffffffffff1673ffffffffffffffffffffffffffffffffffffffff1681526020019060010190808311610f72575b50505050509050919050565b60018181548110610fd857600080fd5b906000526020600020906006020160009150905080600001549080600101805461100190613464565b80601f016020809104026020016040519081016040528092919081815260200182805461102d90613464565b801561107a5780601f1061104f5761010080835404028352916020019161107a565b820191906000526020600020905b81548152906001019060200180831161105d57829003601f168201915b50505050509080600201549080600301805461109590613464565b80601f01602080910402602001604051908101604052809291908181526020018280546110c190613464565b801561110e5780601f106110e35761010080835404028352916020019161110e565b820191906000526020600020905b8154815290600101906020018083116110f157829003601f168201915b5050505050908060040154908060050160009054906101000a900460ff16908060050160019054906101000a900473ffffffffffffffffffffffffffffffffffffffff16905087565b6060600660003373ffffffffffffffffffffffffffffffffffffffff1673ffffffffffffffffffffffffffffffffffffffff168152602001908152602001600020805480602002602001604051908101604052809291908181526020016000905b82821015611257578382906000526020600020016040518060400160405290816000820160009054906101000a900473ffffffffffffffffffffffffffffffffffffffff1673ffffffffffffffffffffffffffffffffffffffff1673ffffffffffffffffffffffffffffffffffffffff1681526020016000820160149054906101000a900460ff161515151581525050815260200190600101906111b8565b50505050905090565b6112686125a7565b6000600760003373ffffffffffffffffffffffffffffffffffffffff1673ffffffffffffffffffffffffffffffffffffffff168152602001908152602001600020805490509050600760003373ffffffffffffffffffffffffffffffffffffffff1673ffffffffffffffffffffffffffffffffffffffff1681526020019081526020016000206001826112fb919061359d565b8154811061130c5761130b613525565b5b90600052602060002090600502016040518060a00160405290816000820154815260200160018201805461133f90613464565b80601f016020809104026020016040519081016040528092919081815260200182805461136b90613464565b80156113b85780601f1061138d576101008083540402835291602001916113b8565b820191906000526020600020905b81548152906001019060200180831161139b57829003601f168201915b50505050508152602001600282015481526020016003820160009054906101000a900473ffffffffffffffffffffffffffffffffffffffff1673ffffffffffffffffffffffffffffffffffffffff1673ffffffffffffffffffffffffffffffffffffffff1681526020016004820160009054906101000a900473ffffffffffffffffffffffffffffffffffffffff1673ffffffffffffffffffffffffffffffffffffffff1673ffffffffffffffffffffffffffffffffffffffff168152505091505090565b60005b6001805490508110156116325782600182815481106114a2576114a1613525565b5b906000526020600020906006020160000154141561161f5760026000600183815481106114d2576114d1613525565b5b906000526020600020906006020160050160019054906101000a900473ffffffffffffffffffffffffffffffffffffffff1673ffffffffffffffffffffffffffffffffffffffff1673ffffffffffffffffffffffffffffffffffffffff16815260200190815260200160002060405180608001604052808581526020013373ffffffffffffffffffffffffffffffffffffffff1681526020018481526020016000151581525090806001815401808255809150506001900390600052602060002090600402016000909190919091506000820151816000015560208201518160010160006101000a81548173ffffffffffffffffffffffffffffffffffffffff021916908373ffffffffffffffffffffffffffffffffffffffff1602179055506040820151816002015560608201518160030160006101000a81548160ff02191690831515021790555050505b808061162a90613554565b915050611480565b505050565b60006040518060a001604052808681526020018581526020018481526020018381526020013373ffffffffffffffffffffffffffffffffffffffff16815250908060018154018082558091505060019003906000526020600020906005020160009091909190915060008201518160000190805190602001906116bb929190612521565b5060208201518160010190805190602001906116d8929190612521565b5060408201518160020190805190602001906116f5929190612521565b506060820151816003019080519060200190611712929190612521565b5060808201518160040160006101000a81548173ffffffffffffffffffffffffffffffffffffffff021916908373ffffffffffffffffffffffffffffffffffffffff160217905550505050505050565b670de0b6b3a76400008161177691906135d1565b905060003373ffffffffffffffffffffffffffffffffffffffff168260405161179e9061365c565b60006040518083038185875af1925050503d80600081146117db576040519150601f19603f3d011682016040523d82523d6000602084013e6117e0565b606091505b5050905080611824576040517f08c379a000000000000000000000000000000000000000000000000000000000815260040161181b906136bd565b60405180910390fd5b60005b6001805490508110156118b357836001828154811061184957611848613525565b5b90600052602060002090600602016000015414156118a05760006001828154811061187757611876613525565b5b906000526020600020906006020160050160006101000a81548160ff0219169083151502179055505b80806118ab90613554565b915050611827565b50600080600090505b600260003373ffffffffffffffffffffffffffffffffffffffff1673ffffffffffffffffffffffffffffffffffffffff16815260200190815260200160002080549050811015611a845784600260003373ffffffffffffffffffffffffffffffffffffffff1673ffffffffffffffffffffffffffffffffffffffff168152602001908152602001600020828154811061195857611957613525565b5b9060005260206000209060040201600001541415611a7157600260003373ffffffffffffffffffffffffffffffffffffffff1673ffffffffffffffffffffffffffffffffffffffff16815260200190815260200160002081815481106119c1576119c0613525565b5b906000526020600020906004020160010160009054906101000a900473ffffffffffffffffffffffffffffffffffffffff1691506001600260003373ffffffffffffffffffffffffffffffffffffffff1673ffffffffffffffffffffffffffffffffffffffff1681526020019081526020016000208281548110611a4857611a47613525565b5b906000526020600020906004020160030160006101000a81548160ff0219169083151502179055505b8080611a7c90613554565b9150506118bc565b5060036000858152602001908152602001600020819080600181540180825580915050600190039060005260206000200160009091909190916101000a81548173ffffffffffffffffffffffffffffffffffffffff021916908373ffffffffffffffffffffffffffffffffffffffff160217905550600760008273ffffffffffffffffffffffffffffffffffffffff1673ffffffffffffffffffffffffffffffffffffffff1681526020019081526020016000206040518060a001604052808681526020016040518060400160405280600781526020017f302f302f3030300000000000000000000000000000000000000000000000000081525081526020018581526020018373ffffffffffffffffffffffffffffffffffffffff1681526020013373ffffffffffffffffffffffffffffffffffffffff168152509080600181540180825580915050600190039060005260206000209060050201600090919091909150600082015181600001556020820151816001019080519060200190611c0f929190612521565b506040820151816002015560608201518160030160006101000a81548173ffffffffffffffffffffffffffffffffffffffff021916908373ffffffffffffffffffffffffffffffffffffffff16021790555060808201518160040160006101000a81548173ffffffffffffffffffffffffffffffffffffffff021916908373ffffffffffffffffffffffffffffffffffffffff160217905550505050505050565b60606001805480602002602001604051908101604052809291908181526020016000905b82821015611eb957838290600052602060002090600602016040518060e001604052908160008201548152602001600182018054611d1190613464565b80601f0160208091040260200160405190810160405280929190818152602001828054611d3d90613464565b8015611d8a5780601f10611d5f57610100808354040283529160200191611d8a565b820191906000526020600020905b815481529060010190602001808311611d6d57829003601f168201915b5050505050815260200160028201548152602001600382018054611dad90613464565b80601f0160208091040260200160405190810160405280929190818152602001828054611dd990613464565b8015611e265780601f10611dfb57610100808354040283529160200191611e26565b820191906000526020600020905b815481529060010190602001808311611e0957829003601f168201915b50505050508152602001600482015481526020016005820160009054906101000a900460ff161515151581526020016005820160019054906101000a900473ffffffffffffffffffffffffffffffffffffffff1673ffffffffffffffffffffffffffffffffffffffff1673ffffffffffffffffffffffffffffffffffffffff168152505081526020019060010190611cd4565b50505050905090565b60603373ffffffffffffffffffffffffffffffffffffffff168273ffffffffffffffffffffffffffffffffffffffff161480611f845750600560008373ffffffffffffffffffffffffffffffffffffffff1673ffffffffffffffffffffffffffffffffffffffff16815260200190815260200160002060003373ffffffffffffffffffffffffffffffffffffffff1673ffffffffffffffffffffffffffffffffffffffff16815260200190815260200160002060009054906101000a900460ff165b611fc3576040517f08c379a0000000000000000000000000000000000000000000000000000000008152600401611fba90613729565b60405180910390fd5b600460008373ffffffffffffffffffffffffffffffffffffffff1673ffffffffffffffffffffffffffffffffffffffff168152602001908152602001600020805480602002602001604051908101604052809291908181526020016000905b828210156120ce57838290600052602060002001805461204190613464565b80601f016020809104026020016040519081016040528092919081815260200182805461206d90613464565b80156120ba5780601f1061208f576101008083540402835291602001916120ba565b820191906000526020600020905b81548152906001019060200180831161209d57829003601f168201915b505050505081526020019060010190612022565b505050509050919050565b6001600560003373ffffffffffffffffffffffffffffffffffffffff1673ffffffffffffffffffffffffffffffffffffffff16815260200190815260200160002060008373ffffffffffffffffffffffffffffffffffffffff1673ffffffffffffffffffffffffffffffffffffffff16815260200190815260200160002060006101000a81548160ff021916908315150217905550600860003373ffffffffffffffffffffffffffffffffffffffff1673ffffffffffffffffffffffffffffffffffffffff16815260200190815260200160002060008273ffffffffffffffffffffffffffffffffffffffff1673ffffffffffffffffffffffffffffffffffffffff16815260200190815260200160002060009054906101000a900460ff161561238d5760005b600660003373ffffffffffffffffffffffffffffffffffffffff1673ffffffffffffffffffffffffffffffffffffffff16815260200190815260200160002080549050811015612387578173ffffffffffffffffffffffffffffffffffffffff16600660003373ffffffffffffffffffffffffffffffffffffffff1673ffffffffffffffffffffffffffffffffffffffff16815260200190815260200160002082815481106122b2576122b1613525565b5b9060005260206000200160000160009054906101000a900473ffffffffffffffffffffffffffffffffffffffff1673ffffffffffffffffffffffffffffffffffffffff161415612374576001600660003373ffffffffffffffffffffffffffffffffffffffff1673ffffffffffffffffffffffffffffffffffffffff168152602001908152602001600020828154811061234f5761234e613525565b5b9060005260206000200160000160146101000a81548160ff0219169083151502179055505b808061237f90613554565b915050612200565b5061251e565b600660003373ffffffffffffffffffffffffffffffffffffffff1673ffffffffffffffffffffffffffffffffffffffff16815260200190815260200160002060405180604001604052808373ffffffffffffffffffffffffffffffffffffffff168152602001600115158152509080600181540180825580915050600190039060005260206000200160009091909190915060008201518160000160006101000a81548173ffffffffffffffffffffffffffffffffffffffff021916908373ffffffffffffffffffffffffffffffffffffffff16021790555060208201518160000160146101000a81548160ff02191690831515021790555050506001600860003373ffffffffffffffffffffffffffffffffffffffff1673ffffffffffffffffffffffffffffffffffffffff16815260200190815260200160002060008373ffffffffffffffffffffffffffffffffffffffff1673ffffffffffffffffffffffffffffffffffffffff16815260200190815260200160002060006101000a81548160ff0219169083151502179055505b50565b82805461252d90613464565b90600052602060002090601f01602090048101928261254f5760008555612596565b82601f1061256857805160ff1916838001178555612596565b82800160010185558215612596579182015b8281111561259557825182559160200191906001019061257a565b5b5090506125a39190612602565b5090565b6040518060a00160405280600081526020016060815260200160008152602001600073ffffffffffffffffffffffffffffffffffffffff168152602001600073ffffffffffffffffffffffffffffffffffffffff1681525090565b5b8082111561261b576000816000905550600101612603565b5090565b6000604051905090565b600080fd5b600080fd5b6000819050919050565b61264681612633565b811461265157600080fd5b50565b6000813590506126638161263d565b92915050565b60006020828403121561267f5761267e612629565b5b600061268d84828501612654565b91505092915050565b600081519050919050565b600082825260208201905092915050565b60005b838110156126d05780820151818401526020810190506126b5565b838111156126df576000848401525b50505050565b6000601f19601f8301169050919050565b600061270182612696565b61270b81856126a1565b935061271b8185602086016126b2565b612724816126e5565b840191505092915050565b600073ffffffffffffffffffffffffffffffffffffffff82169050919050565b600061275a8261272f565b9050919050565b61276a8161274f565b82525050565b600060a082019050818103600083015261278a81886126f6565b9050818103602083015261279e81876126f6565b905081810360408301526127b281866126f6565b905081810360608301526127c681856126f6565b90506127d56080830184612761565b9695505050505050565b6127e881612633565b82525050565b600060208201905061280360008301846127df565b92915050565b600081519050919050565b600082825260208201905092915050565b6000819050602082019050919050565b600082825260208201905092915050565b600061285182612696565b61285b8185612835565b935061286b8185602086016126b2565b612874816126e5565b840191505092915050565b6128888161274f565b82525050565b600060a08301600083015184820360008601526128ab8282612846565b915050602083015184820360208601526128c58282612846565b915050604083015184820360408601526128df8282612846565b915050606083015184820360608601526128f98282612846565b915050608083015161290e608086018261287f565b508091505092915050565b6000612925838361288e565b905092915050565b6000602082019050919050565b600061294582612809565b61294f8185612814565b93508360208202850161296185612825565b8060005b8581101561299d578484038952815161297e8582612919565b94506129898361292d565b925060208a01995050600181019050612965565b50829750879550505050505092915050565b600060208201905081810360008301526129c9818461293a565b905092915050565b6129da8161274f565b81146129e557600080fd5b50565b6000813590506129f7816129d1565b92915050565b600080fd5b600080fd5b7f4e487b7100000000000000000000000000000000000000000000000000000000600052604160045260246000fd5b612a3f826126e5565b810181811067ffffffffffffffff82111715612a5e57612a5d612a07565b5b80604052505050565b6000612a7161261f565b9050612a7d8282612a36565b919050565b600067ffffffffffffffff821115612a9d57612a9c612a07565b5b612aa6826126e5565b9050602081019050919050565b82818337600083830152505050565b6000612ad5612ad084612a82565b612a67565b905082815260208101848484011115612af157612af0612a02565b5b612afc848285612ab3565b509392505050565b600082601f830112612b1957612b186129fd565b5b8135612b29848260208601612ac2565b91505092915050565b60008060408385031215612b4957612b48612629565b5b6000612b57858286016129e8565b925050602083013567ffffffffffffffff811115612b7857612b7761262e565b5b612b8485828601612b04565b9150509250929050565b600081519050919050565b600082825260208201905092915050565b6000819050602082019050919050565b612bc381612633565b82525050565b60008115159050919050565b612bde81612bc9565b82525050565b608082016000820151612bfa6000850182612bba565b506020820151612c0d602085018261287f565b506040820151612c206040850182612bba565b506060820151612c336060850182612bd5565b50505050565b6000612c458383612be4565b60808301905092915050565b6000602082019050919050565b6000612c6982612b8e565b612c738185612b99565b9350612c7e83612baa565b8060005b83811015612caf578151612c968882612c39565b9750612ca183612c51565b925050600181019050612c82565b5085935050505092915050565b60006020820190508181036000830152612cd68184612c5e565b905092915050565b600080600080600060a08688031215612cfa57612cf9612629565b5b6000612d0888828901612654565b955050602086013567ffffffffffffffff811115612d2957612d2861262e565b5b612d3588828901612b04565b9450506040612d4688828901612654565b935050606086013567ffffffffffffffff811115612d6757612d6661262e565b5b612d7388828901612b04565b9250506080612d8488828901612654565b9150509295509295909350565b600060208284031215612da757612da6612629565b5b6000612db5848285016129e8565b91505092915050565b600081519050919050565b600082825260208201905092915050565b6000819050602082019050919050565b6000612df6838361287f565b60208301905092915050565b6000602082019050919050565b6000612e1a82612dbe565b612e248185612dc9565b9350612e2f83612dda565b8060005b83811015612e60578151612e478882612dea565b9750612e5283612e02565b925050600181019050612e33565b5085935050505092915050565b60006020820190508181036000830152612e878184612e0f565b905092915050565b612e9881612bc9565b82525050565b600060e082019050612eb3600083018a6127df565b8181036020830152612ec581896126f6565b9050612ed460408301886127df565b8181036060830152612ee681876126f6565b9050612ef560808301866127df565b612f0260a0830185612e8f565b612f0f60c0830184612761565b98975050505050505050565b600081519050919050565b600082825260208201905092915050565b6000819050602082019050919050565b604082016000820151612f5d600085018261287f565b506020820151612f706020850182612bd5565b50505050565b6000612f828383612f47565b60408301905092915050565b6000602082019050919050565b6000612fa682612f1b565b612fb08185612f26565b9350612fbb83612f37565b8060005b83811015612fec578151612fd38882612f76565b9750612fde83612f8e565b925050600181019050612fbf565b5085935050505092915050565b600060208201905081810360008301526130138184612f9b565b905092915050565b600060a0830160008301516130336000860182612bba565b506020830151848203602086015261304b8282612846565b91505060408301516130606040860182612bba565b506060830151613073606086018261287f565b506080830151613086608086018261287f565b508091505092915050565b600060208201905081810360008301526130ab818461301b565b905092915050565b600080604083850312156130ca576130c9612629565b5b60006130d885828601612654565b92505060206130e985828601612654565b9150509250929050565b6000806000806080858703121561310d5761310c612629565b5b600085013567ffffffffffffffff81111561312b5761312a61262e565b5b61313787828801612b04565b945050602085013567ffffffffffffffff8111156131585761315761262e565b5b61316487828801612b04565b935050604085013567ffffffffffffffff8111156131855761318461262e565b5b61319187828801612b04565b925050606085013567ffffffffffffffff8111156131b2576131b161262e565b5b6131be87828801612b04565b91505092959194509250565b600081519050919050565b600082825260208201905092915050565b6000819050602082019050919050565b600060e08301600083015161320e6000860182612bba565b50602083015184820360208601526132268282612846565b915050604083015161323b6040860182612bba565b50606083015184820360608601526132538282612846565b91505060808301516132686080860182612bba565b5060a083015161327b60a0860182612bd5565b5060c083015161328e60c086018261287f565b508091505092915050565b60006132a583836131f6565b905092915050565b6000602082019050919050565b60006132c5826131ca565b6132cf81856131d5565b9350836020820285016132e1856131e6565b8060005b8581101561331d57848403895281516132fe8582613299565b9450613309836132ad565b925060208a019950506001810190506132e5565b50829750879550505050505092915050565b6000602082019050818103600083015261334981846132ba565b905092915050565b600081519050919050565b600082825260208201905092915050565b6000819050602082019050919050565b60006133898383612846565b905092915050565b6000602082019050919050565b60006133a982613351565b6133b3818561335c565b9350836020820285016133c58561336d565b8060005b8581101561340157848403895281516133e2858261337d565b94506133ed83613391565b925060208a019950506001810190506133c9565b50829750879550505050505092915050565b6000602082019050818103600083015261342d818461339e565b905092915050565b7f4e487b7100000000000000000000000000000000000000000000000000000000600052602260045260246000fd5b6000600282049050600182168061347c57607f821691505b602082108114156134905761348f613435565b5b50919050565b7f4e487b7100000000000000000000000000000000000000000000000000000000600052601260045260246000fd5b7f4e487b7100000000000000000000000000000000000000000000000000000000600052601160045260246000fd5b60006134ff82612633565b915061350a83612633565b92508261351a57613519613496565b5b828204905092915050565b7f4e487b7100000000000000000000000000000000000000000000000000000000600052603260045260246000fd5b600061355f82612633565b91507fffffffffffffffffffffffffffffffffffffffffffffffffffffffffffffffff821415613592576135916134c5565b5b600182019050919050565b60006135a882612633565b91506135b383612633565b9250828210156135c6576135c56134c5565b5b828203905092915050565b60006135dc82612633565b91506135e783612633565b9250817fffffffffffffffffffffffffffffffffffffffffffffffffffffffffffffffff04831182151516156136205761361f6134c5565b5b828202905092915050565b600081905092915050565b50565b600061364660008361362b565b915061365182613636565b600082019050919050565b600061366782613639565b9150819050919050565b7f4661696c656420746f207472616e736665720000000000000000000000000000600082015250565b60006136a76012836126a1565b91506136b282613671565b602082019050919050565b600060208201905081810360008301526136d68161369a565b9050919050565b7f596f7520646f6e27742068617665206163636573730000000000000000000000600082015250565b60006137136015836126a1565b915061371e826136dd565b602082019050919050565b6000602082019050818103600083015261374281613706565b905091905056fea2646970667358221220fff8b30c70f66b419877f99c827f4746d4762bb311a3b659048dc0e7bbc6165d64736f6c63430008090033",
  "linkReferences": {},
  "deployedLinkReferences": {}
}